:020000022000DC
:10600000000001203D6202009562020097620200DA
:10601000996202009B6202009D6202000000000083
:106020000000000000000000000000009F6202006D
:10603000A162020000000000A3620200A56202004B
:10604000B1B80200AB62020011C60200EDEB020023
:10605000B1620200B362020031C3020061EF0200CC
:10606000B962020065FF0200BD620200BF62020069
:10607000C1620200C3620200C5620200C762020080
:10608000C962020019860200CD620200CF620200DE
:1060900059860200D36202009D560300D7620200B7
:1060A000D9620200DB620200DD620200DF620200F0
:1060B000E1620200E3620200A7620200A76202003E
:1060C000E5620200E7620200E9620200EB620200A0
:0C60D000ED620200EF620200F1620200CB
:1060DC00364937480A1A02D0072291438D46354972
:1060EC0035480A1A06D00722914381F30988022207
:1060FC0082F3148831483249324A00F045F832486C
:10610C003249334A00F040F832483349334A00F000
:10611C003BF833483349344A00F036F833483449B5
:10612C00344A00F031F834483449354A00F02CF840
:10613C0034483549354A00F027F8354835490022AE
:10614C0000F02DF834483549002200F028F8344886
:10615C003449091A082903DB00220260043001606B
:10616C00314A90471F482049884205D002680430C4
:10617C0003B4904703BCF7E700208646EC460020AA
:10618C0000212A4A9047FEE7884207D0521A05D0D0
:10619C00037801300B700131013AF9D17047884214
:1061AC0002D002700130FAE77047000000000120B5
:1061BC0000E000200000012000000120E4B20300F8
:1061CC00E42A0020082C0020F4620200F462020091
:1061DC00DC8A0300E4B20300E42A0020E42A002055
:1061EC00588C0300588C0300588C0300588C030007
:1061FC00588C0300588C0300588C0300588C0300F7
:10620C00E4B2030008B40300082C0020082C002082
:10621C00082C0020EC590020EC590020F0590020EB
:10622C00F0590020F079002061620200911E0300F9
:10623C000F484FF00701884385460E4880470E48AB
:10624C00016841F470010160BFF34F8FBFF36F8F92
:10625C00FFF73EBF09480A490A4A884207D0521A3A
:10626C0005D0037801300B700131013AF9D1704738
:10627C00000001202DA7020088ED00E00C8C03002B
:10628C00982A0020E42A0020FEE7FEE7FEE7FEE75E
:10629C00FEE7FEE7FEE7FEE7FEE7FEE7FEE7FEE7CA
:1062AC00FEE7FEE7FEE7FEE7FEE7FEE7FEE7FEE7BA
:1062BC00FEE7FEE7FEE7FEE7FEE7FEE7FEE7FEE7AA
:1062CC00FEE7FEE7FEE7FEE7FEE7FEE7FEE7FEE79A
:1062DC00FEE7FEE7FEE7FEE7FEE7FEE7FEE7FEE78A
:0862EC00FEE7FEE7FEE700BF3C
:1062F40000487047E459002000B585B00190019B27
:10630400002B0AD0074B43F001030393019B9B012D
:106314000293039B0298984700E000BF05B05DF824
:1063240004FB00BF708C030000B583B00190019B97
:10633400002B0AD04FF47A70FFF7DEFF019B013B7C
:106344000193019B002BF5D100E000BF03B05DF881
:1063540004FB08B50CF030F800BF08BD00B589B0E7
:10636400039002910192019B002B33D000230793E9
:1063740003230693029A079B1344019A19460020AB
:106384000BF0CCFF0590079A059B13440793019AE1
:10639400059BD31A0193059B002B13D10F4B1B783C
:1063A40083F00103DBB2002B13D10120FFF7BCFF04
:1063B400069B013B0693069B002B03D1074B00224F
:1063C4001A7007E0054B01221A70019B002BD1D1F2
:1063D40000E000BF00BF09B05DF804FB082C0020FA
:1063E40000B585B003900291054B00934023054A04
:1063F4000299039800F012F800BF05B05DF804FBA1
:10640400616302000C2C002082B0019000BF02B036
:10641400704782B0019000BF02B0704700B5A1B0D0
:106424000590049103920293049803F0F8FD039BF2
:106434001593029B16930023179300238DF8603065
:1064440000231993229B1A9300231F930FA91F9BC8
:106454000822049803F09EFE08231F93119B1293B5
:10646400BDF84030ADF84C30BDF84230ADF84E3098
:1064740000238DF851309DF83C3003F00303DBB268
:10648400012B26D10F9BC3F395231C939DF83C301D
:10649400C3F3C203DBB28DF85030BDF83C30C3F314
:1064A4008313DBB21B931B9B9A0009A91F9B0498BF
:1064B40003F070FE1B9B9B001F9A13441F9312AAA8
:1064C40009A915AB009313461B9A1C9800F00EFF04
:1064D4002FE09DF83C3003F00303DBB2022B28D1FC
:1064E400BDF83E30C3F389139BB21E939DF83C3034
:1064F400C3F3C203DBB28DF850301E9B082B28BFB8
:1065040008231D9307A91F9B1D9A049803F042FEBC
:106514001F9A1D9B13441F931E9A1D9BD31A1E93EF
:1065240015AB12AA07A81D9900F082FF1E9B002B31
:10653400E3D1049803F082FD00BF21B05DF804FBB1
:1065440082B00190019B01225A7200BF02B07047D1
:1065540000B583B04FF0FF330193FFF7FAFE042137
:10656400084800F0E3FD0190019B002B03DA064983
:1065740041200AF033FC0348FFF7E2FF00BF03B0F9
:106584005DF804FBE42A0020788C030000B583B096
:1065940001900091019B1B681B6800990198984722
:1065A40000BF03B05DF804FB00B583B00190019B0C
:1065B4001B685B680198984700BF03B05DF804FB53
:1065C40000B583B00190019B1B689B6801989847B4
:1065D40000BF03B05DF804FB82B001900B468DF858
:1065E4000330019B9DF803201A7200BF02B070476C
:1065F40082B00190019B1B7A184602B0704782B0AA
:106604000190019B01225A7200BF02B0704782B010
:106614000190019B5B7A184602B0704700B587B0C1
:10662400019000911D4BFF229A601C4B00221A60BE
:106634001A4B00225A60194B0022C3F81824174B36
:106644000022C3F81424154B012283F82024144893
:1066540003F04AFC0490049B002B01D0049B18E037
:10666400104A114BD31ADB080393002305930BE064
:10667400059B9B000D4A13440293059B9AB2029B0F
:106684001A80059B01330593059A039B9A42EFD325
:106694000023184607B05DF804FB00BF1C2D002042
:1066A400CC8B0300CC8B0300348B0300982A00208E
:1066B400024A034BD31ADB0818467047CC8B0300FD
:1066C400348B030000B587B001900B468DF803307E
:1066D4009DF80330002B1FD0FFF7EAFF049000233E
:1066E400059313E0059B9B000E4A13440393039BFD
:1066F4005B881A46019B1B689A4204D1019B059A48
:106704001A60002309E0059B01330593059A049B55
:106714009A42E7D3052300E00023184607B05DF84A
:1067240004FB00BF982A002000B585B001900B46F9
:106734008DF803309DF8032001AB11461846FFF78E
:10674400C1FF0346002B07D1019BDB00054A13441C
:106754000393039B1B6800E00023184605B05DF813
:1067640004FB00BF348B030084B001900B468DF80A
:106774000330019BDB00174A134402939DF8033056
:10678400013B032B1CD801A252F823F0A16702009D
:10679400A9670200B1670200BB67020002238DF8FB
:1067A4000F3011E004238DF80F300DE0029B1B79AC
:1067B4008DF80F3008E0029B5B798DF80F3003E011
:1067C40000238DF80F3000BF9DF80F30184604B039
:1067D400704700BF348B030000B585B00190009171
:1067E40000238DF80F30019B1B7803F00303DBB209
:1067F400002B06D0019B1B7803F00403DBB2002BB3
:1068040044D0019B1B7803F00403DBB2002B28D097
:10681400019B1B78C3F30103DBB2012B02D0022BD3
:106824000CD017E0009B1B68019A1288C2F38312F4
:10683400D2B213449A1C009B1A6024E0009B1B688C
:10684400019A5288C2F3891292B213449A1C009B93
:106854001A6018E010494FF4A4700AF0BFFA00BFA0
:1068640011E0009B1A68019B5B88C3F389139BB2F8
:106874001946019B1B88C3F389139BB20B44134431
:106884005A1C009B1A6001238DF80F309DF80F30BD
:10689400184605B05DF804FB148D030000B58BB0F9
:1068A4000023ADF826303E4802F0A3FB3D4802F039
:1068B400A0FB3D4B5B6804933B4B9B680693049A97
:1068C400069B134002339B00374A13440433089356
:1068D40004AB19460898FFF77FFF0346002B09D045
:1068E400049A069B134002339B002F4A134404333B
:1068F4000893EDE700BF0023079311E0049B5A1CA3
:106904000492069A1340079A920001A90A44264960
:1069140002339B000B445B681360079B01330793AE
:10692400079B012BEAD99DF80430C3F30103DBB2C2
:10693400012B10D0022B1CD1BDF80A30ADF8263043
:10694400BDF80630C3F389139BB203339A08049B42
:106954001344049313E0BDF80A30ADF82630BDF8B3
:106964000430C3F38313DBB21A46049B1344049329
:1069740005E00E494FF4C2700AF030FA00BF09482E
:1069840002F043FB0590059B002B02D0049B064AB2
:106994005360BDF8263018460BB05DF804FB00BF09
:1069A40034310020303100201C2D0020148D0300D0
:1069B40000B585B00021074802F08CFA0390039BD0
:1069C4000293029B83F310030193019B184605B0C5
:1069D4005DF804FB3831002000B589B003900291C2
:1069E40001920093039B1B0C0793FFF7E1FF0690B2
:1069F400FFF75EFE0246079B934204D3214940F20F
:106A0400A9100AF0EBF9069B1904009B5A1C0A9B77
:106A14001340079A0A431C4902339B000B445A60F3
:106A2400009A0A9B134002339B00174A1344043311
:106A34000593039B03F00703D9B2059A137861F316
:106A4400C5031370019B03F00F03D9B2059A138891
:106A540061F389131380029BC3F31501059A13682C
:106A640061F39F231360059A1378012161F30103F5
:106A74001370059A13786FF38203137000BF09B083
:106A84005DF804FB148D03001C2D002000B58DB0AF
:106A94000390029113468DF80730039B02330A9347
:106AA40001238DF8273000238DF81B300DF11B03D3
:106AB400184602F013F9404B1A68029B1A603E4BC9
:106AC4009A683D4B59683C4B1B68CB1A13440133FD
:106AD4000B9314E00121394802F05BFAFFF7DEFE64
:106AE40007900799354802F054FA334B9A68324BB1
:106AF4005968314B1B68CB1A134401330B930A9A20
:106B04000B9B9A42E6D89DF82730002B48D00023EF
:106B140005939DF80730002B17D09DF814300122FF
:106B240062F301038DF814309DF8143043F004032C
:106B34008DF81430039B03F00F03DAB2BDF8143060
:106B440062F38913ADF8143016E09DF81430022274
:106B540062F301038DF814309DF8143043F00403FC
:106B64008DF81430039BC3F309039AB2BDF81630B1
:106B740062F38F13ADF816300F4B1A680E4B9B68F7
:106B8400134002339B000C4A134404330893059AC0
:106B9400089B1A60084B1A680A9B1344064A136040
:106BA4009DF81B30184602F0AFF89DF827301846C0
:106BB4000DB05DF804FB00BF1C2D0020383100200F
:106BC40000B58BB005900491039202931F4B9B6810
:106BD400079306AB012219460298FFF757FF0346B5
:106BE400002B24D0069B023309930023089311E061
:106BF400089B9B00039A1A44099B591C0991079905
:106C04000B401268114902339B000B445A60089BE5
:106C140001330893089A029B9A42E9D3069A079B88
:106C240000931346029A04990598FFF7D5FE074B83
:106C340093F82034002B05D000BF00F07BF8034606
:106C4400002BFAD100BF0BB05DF804FB1C2D002013
:106C540000B583B0019000910023002200990198AF
:106C6400FFF7AEFF00BF03B05DF804FB00B587B0CB
:106C7400039002910192019B059305AA01230299B5
:106C84000398FFF79DFF00BF07B05DF804FB00B554
:106C940087B00390029101920093019B0493009B9F
:106CA400059304AA022302990398FFF789FF00BF02
:106CB40007B05DF804FB00B589B00390029101921E
:106CC4000093019B0593009B06930A9B079305AAD7
:106CD400032302990398FFF773FF00BF09B05DF81F
:106CE40004FB00B58BB00390029101920093019BC9
:106CF4000593009B06930C9B07930D9B08930E9B97
:106D0400099305AA052302990398FFF759FF00BFC9
:106D14000BB05DF804FB0000054B5A68044B1B687C
:106D24009A420CBF01230023DBB21846704700BF10
:106D34001C2D002000B599B0FFF7EEFF0346002B91
:106D440001D00023B4E1984B0022C3F81824BFF308
:106D54004F8F954B5B680493934B9B681093049AF5
:106D6400109B134002339B008F4A13440433129345
:106D7400002317930023169300230F9304AB1946A3
:106D84001298FFF729FD0346002B14D0864B1A688E
:106D9400049B9A4205D8844B1B68834A53600023A2
:106DA40086E1049A109B134002339B007E4A1344ED
:106DB40004331293E2E700BF0023159311E0049B10
:106DC4005A1C0492109A1340159A920001A90A447D
:106DD400754902339B000B445B681360159B0133B8
:106DE4001593159B012BEAD99DF8043003F0030396
:106DF400DBB2022B40F09C80BDF80630C3F389134C
:106E04009BB20D93BDF80630C3F389139BB2502B8C
:106E140028BF50239BB20C930C9BC3F309039AB273
:106E2400BDF8063062F38F13ADF806300C9B0833BF
:106E34000B939DF80430C3F3C203DBB20F930B9999
:106E44005A4803F05CF81790179B002B00F0D08091
:106E5400179803F0E4F801A9169B0822179803F089
:106E640087F9169B08331693049BDA43109B13404F
:106E740001339B000A930C9A0A9B9A4242D90A9BBB
:106E8400002B08D0049A109B134002339B00464AFF
:106E94001344043300E0464B08930A9B002B02D0B2
:106EA4000A9BDBB201E00C9BDBB28DF81F300A9B1E
:106EB400002B01D03E4B00E0002306930A9B002BDD
:106EC40006D00C9BDAB20A9BDBB2D31ADBB200E029
:106ED40000238DF817309DF81F20169B08991798EA
:106EE40003F046F99DF81F30169A13441693069B37
:106EF400002B16D09DF81720169B0699179803F0BF
:106F040037F90EE0049A109B134002339B00264A83
:106F1400134404330993169B0C9A0999179803F0A8
:106F240027F90D9B03339A08049B134404935FE0F1
:106F34009DF8043003F00303DBB2012B58D1BDF8F4
:106F44000430C3F38313DBB2062B28BF0623DAB263
:106F5400BDF8043062F38913ADF80430BDF8043091
:106F6400C3F38313DBB202330E939DF80430C3F3EF
:106F7400C203DBB20F930E9B9B0019460B4802F031
:106F8400BEFF1790179B002B32D0179803F047F8D9
:106F940001A9169B0822179803F0EAF8169B0833F8
:106FA4001693002315931AE01C2D0020CC8B0300AC
:106FB400282D0020049B5A1C0492109A134002337B
:106FC4009B003D4A1344191D169B0422179803F095
:106FD400CFF8169B04331693159B01331593BDF814
:106FE4000430C3F38313DBB21A46159B9342E1D3F7
:106FF400179B002B3FD0304BD3F8103414932E4BF7
:10700400D3F81834002B1AD0179803F017F849E076
:1070140000238DF84F301498FFF7F9FA0346002B3C
:1070240002D001238DF84F309DF84F30002B03D050
:1070340017991498FFF7AAFA149B5B681493149B8E
:10704400002BE5D1179802F0F9FF00238DF80330E7
:107054000DF10303184601F041FE174BD3F8183421
:10706400002B02D1049B144A53609DF80330184648
:1070740001F04AFE16E0104BD3F81034119305E0EA
:107084001198FFF79DFA119B5B681193119B002BDC
:10709400F6D10A4B1B881B0443F002030849184627
:1070A400FFF7D6FDFFF738FE034683F00103DBB29A
:1070B400184619B05DF804FB1C2D0020B82A0020E6
:1070C400908D030000B585B00023039322E0164B96
:1070D400D3F81034029301238DF807300EE00298A0
:1070E400FFF786FA03461A46039B934203D1002313
:1070F4008DF8073005E0029B5B680293029B002B2E
:10710400EDD19DF80730002B01D0039B07E0039BD2
:1071140001330393039B092BD9DD4FF0FF3318464A
:1071240005B05DF804FB00BF1C2D002000B585B040
:1071340001900B468DF80330FFF7C4FF0390039BC7
:10714400B3F1FF3F01D1039B1EE0039BDBB2194661
:107154000198FFF741FA0E4BD3F81034002B07D1F6
:107164000B4A019BC2F81034019B00225A600AE0CA
:10717400074BD3F810345A68019B5A60044BD3F878
:107184001034019A5A60039B184605B05DF804FB5D
:107194001C2D002000B583B00C4BD3F810340193A0
:1071A4000A4B012283F8202408E00198FFF727FA0C
:1071B4000198FFF7F9F9019B5B680193019B002B90
:1071C400F3D100BF03B05DF804FB00BF1C2D002009
:1071D40082B00190009100BF02B0704710B584B036
:1071E40003900291039BDB88002B0AD0039BDB886E
:1071F4001A461F4B009313461E4A1F49029802F079
:1072040043F8039B1B7A052B2ED0039B5B7A002B40
:1072140012D0039B9B881A46039B1B7A194610467F
:10722400FFF7A2FA03461A46144B53F822301A46C3
:107234001349029802F028F8039B1B681946029828
:10724400FFF7C6FF039B1B7A1A460E4B53F82240E6
:10725400039B9B8800211846FFF766FA03462246E3
:107264000949029802F010F800BF04B010BD00BF35
:10727400C48D0300D48D03000C8E0300042B002066
:10728400248E0300F02A0020288E030000B585B068
:107294000390029113468DF80730039B1B7A052B4C
:1072A4000FD0039B5B7A002B06D00D4B1B681A464C
:1072B4000C49029801F0E8FF0B49029801F0E4FF41
:1072C40007E09DF80730002B03D00749029801F02E
:1072D400DBFF029801F0B6FF00BF05B05DF804FBC8
:1072E400042B0020248E0300348E030030B58BB0B1
:1072F40007900691059204930E9B1B7B8DF8273013
:107304000E9B00221A730E990498FFF767FF059BE2
:10731400062B7FD801A252F823F000BF3D73020070
:1073240047730200577302006B73020089730200F3
:10733400B1730200E173020007990E9801F0A4FFF3
:1073440069E0069B1B681A4607990E9801F09CFF9A
:1073540061E0069B1A68069B04331B6807990E9824
:1073640001F092FF57E0069B1A68069B04331968E4
:10737400069B08331B6800930B4607990E9801F08F
:1073840083FF48E0069B1968069B04331868069B34
:1073940008331B68069A0C32126801920093034664
:1073A4000A4607990E9801F06FFF34E0069B1868AF
:1073B400069B04331C68069B08331B68069A0C3230
:1073C40012680699103109680291019200932346CC
:1073D400024607990E9801F057FF1CE0069B1C68B3
:1073E400069B04331D68069B08331B68069A0C32FF
:1073F40012680699103109680698143000680390E1
:107404000291019200932B46224607990E9801F0AF
:107414003BFF00E000BF00220E990498FFF736FFFF
:107424000E9B9DF827201A7300BF0BB030BD00BF20
:1074340000B587B00390029101920093029B082B40
:107444005CD8009B1B7B8DF81330009B00221A73C1
:1074540000990198FFF7C2FE0023059314E0059AF2
:10746400029B9A4209D2039A059B13441B781A463D
:107474002449009801F008FF03E02349009801F033
:1074840003FF059B01330593059B072BE7D91F4990
:10749400009801F0F9FE0023059322E0059A029B6F
:1074A4009A4217D2039A059B13441B788DF8123025
:1074B4009DF81230184610F073FD0346002B02D0DD
:1074C4009DF8123000E02E231A461149009801F06D
:1074D400DBFE03E00F49009801F0D6FE059B013363
:1074E4000593059B072BD9D9012200990198FFF731
:1074F400CDFE009B9DF813201A7300E000BF07B077
:107504005DF804FB388E0300408E0300448E0300B4
:10751400488E03004C8E03002DE9F04F89B0019092
:1075240000238DF81F3099E0524B1A689DF81F30E4
:10753400DB0013440693069B1B7819464FF00102A7
:107544004FF00003A1F1200CC1F1200003FA01F96E
:1075540002FA0CFC49EA0C0922FA00F049EA000993
:1075640002FA01F8CDE90489434BD3E90001DDE9CE
:10757400042302EA000A03EA010B5AEA0B0368D067
:10758400DDE904236FEA02006FEA03013A4BD3E911
:1075940000AB0AEA00020BEA01033749C1E9002300
:1075A400069B1B78184604F0A7FE03468DF80F309F
:1075B400069B1B7819464FF001024FF00003A1F11E
:1075C400200CC1F1200003FA01F502FA0CFC45EA93
:1075D4000C0522FA00F0054302FA01F4274BD3E923
:1075E400002304EA020A05EA030B9DF80F204FF07A
:1075F400000306990978A1F1200CC1F1200003FAD7
:1076040001F702FA0CFC47EA0C0722FA00F00743E0
:1076140002FA01F6BB4508BFB2451AD19DF80F30F6
:10762400069A5278012A0CBF01220022D2B2934258
:107634000CBF01230023DBB20293069B5B68002B83
:1076440007D0069B5B68069A12780299C9B2104665
:1076540098479DF81F3001338DF81F30084B1B7875
:107664009DF81F209A42FFF45FAF00BF09B0BDE848
:10767400F08F00BF403100207831002070310020AD
:107684004431002070B586B001900A468DF803207D
:107694004FF001014FF000020198A0F12006C0F163
:1076A400200502FA00F401FA06F6344321FA05F53E
:1076B4002C4301FA00F3CDE90434304B184601F0B1
:1076C40065F80390039B002B54D12D4BD3E9001292
:1076D400DDE9043403EA010504EA020655EA060377
:1076E40037D1019804F008FE0346002B0CD0254B3B
:1076F400D3E90012DDE9043443EA010544EA020651
:10770400204AC2E900560FE0DDE904346FEA0301C0
:107714006FEA04021B4BD3E9005605EA010306EAAB
:107724000204184AC2E90034154BD3E90012DDE91A
:10773400043443EA010544EA0206114AC2E9005648
:107744000E48114B1B680022194600F0EDFF039010
:1077540011E0DDE904346FEA03016FEA0402084B27
:10776400D3E9005605EA010306EA0204044AC2E921
:10777400003400E000BF06B070BD00BF4C310020F3
:1077840078310020703100204831002010B58AB0D3
:1077940003900B4601928DF80B30019B042B01D80A
:1077A40007235AE004F09AFC034683F00103DBB29A
:1077B400002B09D004F040FC0990099B0893089B16
:1077C400002B01D0089B48E0254A039B1360254AFF
:1077D4009DF80B301370244A019B1360234A4FF029
:1077E40000034FF00004C2E90034214A4FF00003C3
:1077F4004FF00004C2E9003422E09DF80B30DB00B6
:10780400039A1344079305AB00210A461A800A46DB
:107814009A7003238DF81430079B9B788DF81530EC
:10782400079B1B78184605AB124A194604F062FC04
:107834000990099B0693069B002B01D0069B0CE044
:107844009DF80B305A1E8DF80B20002BD5D10A4A17
:1078540000210A4800F038FF034618460AB010BD5C
:107864004031002044310020483100207031002094
:1078740078310020897602001D750200508E0300C5
:1078840000B583B0114B1B68002B03D11049BA20FB
:1078940009F0A4FA002301930CE00C4B1A68019B35
:1078A400DB0013441B780121184604F09DFC019B66
:1078B40001330193074B1B781A46019B9342ECD387
:1078C4000023184603B05DF804FB00BF40310020DC
:1078D400548E03004431002086B00390029101923B
:1078E40001238DF817309DF817301F4A039B13604E
:1078F4001D4A029B53601C4A019B9360039B44F204
:107904000102934212D044F20202934221D1019B1C
:10791400154AD360144BDB681B881A46124B9A61D4
:10792400114BDB685B68104AD36112E0019B0E4A7D
:1079340013610D4B1B699B680B4A53610A4B1B690E
:107944001B68094A9361084B1B695B68064AD3614B
:1079540000BF72B600BF9DF81730DBB2002BFAD11E
:1079640062B600BF06B070478031002000B583B016
:1079740002900091019244F2010071466A4600F0BF
:1079840003F803B000BD00BF30B58BB0079006917B
:10799400059272B6FFF7FEFB00BFFFF7CBF9034673
:1079A400002BFAD1079B41F20102934219D041F214
:1079B4000102934202D8012B09D057E044F201029C
:1079C400934229D044F20202934214D04EE0344B45
:1079D4001B881B0443F0010332491846FFF738F9AA
:1079E4004FE02F4B1B881B0443F001032E4918461C
:1079F400FFF72EF945E0059B0993294B1B881B04CF
:107A040043F001031846099B5B681A46099B1B88CF
:107A14002649FFF73CF934E0059B0893204B1B886B
:107A24001B0443F001031D46089B9C68089B9B684C
:107A3400184602F0B7FC03461846089B5B681946D3
:107A4400089B1B68069A0292019300910346224602
:107A540017492846FFF745F9114B1B881B0443F0CF
:107A6400010314491846FFF7F3F80AE00C4B1B888E
:107A74001B0443F00103069A0F491846FFF7F6F872
:107A840000BF0E4B1B6803F00103002B00D000BEA7
:107A9400059A06990798FFF71FFF00BF0BB030BD8A
:107AA400B82A0020BC8E0300DC8E0300008F030084
:107AB4001C8F0300448F0300588F0300F0ED00E097
:107AC40084B00190019B9B680393019BDA68039B3C
:107AD400D31A184604B0704782B001900B468DF853
:107AE4000330019B1A68019BDB68019989880B406C
:107AF40013449DF803201A70019BDB685A1C019BF8
:107B0400DA6000BF02B0704784B003900B46019264
:107B1400ADF80A30039B1A68039B9968BDF80A30D4
:107B24000B44039989880B4013441A78019B1A70FB
:107B340000BF04B0704700B583B001900091009A73
:107B440000210198FFF7E0FF019B9B685A1C019BF1
:107B54009A6000BF03B05DF804FB84B00390029107
:107B64001346ADF80630029B002B01D10E231DE015
:107B7400BDF80630002B07D0BDF806305A1EBDF8FC
:107B840006301340002B01D009230FE0039B029A17
:107B94001A60BDF80630013B9AB2039B9A80039B9E
:107BA40000229A60039B0022DA600023184604B086
:107BB400704700B583B001900B468DF803300198EF
:107BC400FFF77EFF0246019B9B889A4207D89DF8E7
:107BD400033019460198FFF77FFF002300E00423D8
:107BE400184603B05DF804FB00B583B00190009122
:107BF4000198FFF765FF0346002B05D00099019813
:107C0400FFF799FF002300E00523184603B05DF851
:107C140004FB000082B003468DF807309DF807305E
:107C240003F01F0205499DF907305B09012000FAA2
:107C340002F241F8232000BF02B0704700E100E0E7
:107C440082B003468DF807309DF8073003F01F0219
:107C540006499DF907305B09012000FA02F220333E
:107C640041F8232000BF02B0704700BF00E100E0EC
:107C740082B003468DF807309DF8073003F01F02E9
:107C840006499DF907305B09012000FA02F24033EE
:107C940041F8232000BF02B0704700BF00E100E0BC
:107CA40082B003468DF807309DF8073003F01F02B9
:107CB40006499DF907305B09012000FA02F260339E
:107CC40041F8232000BF02B0704700BF00E100E08C
:107CD40082B0034600918DF807309DF90730002BE0
:107CE4000CDA009BDAB20C499DF8073003F00F035D
:107CF400043B5201D2B20B441A7609E0009BDAB27B
:107D040006499DF907305201D2B20B4483F800238F
:107D140000BF02B0704700BF00ED00E000E100E0EA
:107D240000B585B00190019B002B0AD0074B43F0AE
:107D340001030393019B9B010293039B02989847C1
:107D440000E000BF05B05DF804FB00BF708F0300C6
:107D540000B583B00190064A019BC2F8083507219B
:107D64001120FFF7B5FF00BF03B05DF804FB00BFAF
:107D74000010014008B50D4B4FF48032C3F8442382
:107D84000A4B4FF48032C3F804231120FFF788FF15
:107D94001120FFF73FFF054B01221A602F20FFF748
:107DA400BFFF034B01221A7000BF08BD0010014041
:107DB400BE32002008B51120FFF742FF0E4B4FF4EE
:107DC4008032C3F848230C4B4FF48032C3F80823A5
:107DD400094B01225A602F20FFF7A2FF064B012214
:107DE4009A60064B00221A602F20FFF799FF044B7C
:107DF40000221A7000BF08BD00100140B0320020FC
:107E0400BE320020024BD3F804351846704700BF39
:107E14000010014082B001900091019A009BD31A96
:107E240023F07F43184602B07047000082B00190EF
:107E3400034A019BC2F8403500BF02B0704700BF3F
:107E44000010014086B00190284B1B68002B03D121
:107E5400264A019B136045E0019B1A68234B1B686B
:107E64001B689A4210D8214B1B681968019B1A6839
:107E74001E4B1B688A1A1A601C4B1A68019BDA6134
:107E84001A4A019B13602DE0019B1B680393174B57
:107E94001B680593154B1B68049309E0049B1B683E
:107EA400039AD31A0393049B0593049BDB690493FD
:107EB400049B002B04D0049B1B68039A9A42EDD8C0
:107EC400049B002B05D0049B1A68039BD21A049BC5
:107ED4001A60019B039A1A60019B049ADA61059B5C
:107EE400019ADA6100BF06B0704700BFAC320020CF
:107EF40000B587B001902A4B1B680393284B1B687D
:107F04000593059B049308E0049A019B9A4208D0C8
:107F1400049B0593049BDB690493049B002BF3D11E
:107F240000E000BF049B002B01D1002333E0059A3D
:107F3400049B9A4214D11A4B1B68DB69184A1360DC
:107F4400174B1B68002B0BD1164B01229A60164B62
:107F540000221A60154B01221A702F20FFF7E0FE51
:107F6400049B1B680293049BDA69059BDA61059BF9
:107F7400DB690493049B002B05D0049B1A68029BC5
:107F84001A44049B1A60064B1B68039A9A4214BF56
:107F940001230023DBB2184607B05DF804FB00BFE1
:107FA400AC32002000100140B0320020BF3200206B
:107FB40008B51120FFF75CFE00BF08BD08B514200A
:107FC400FFF756FE00BF08BD00B583B00190019BCA
:107FD4005B69019A92691046984700BF03B05DF847
:107FE40004FB000000B585B02B4B1B68002B4ED062
:107FF40000230193FFF706FF0246284B1B6819462E
:108004001046FFF707FF0290234B1B6803931DE004
:10801400039B1B68029A9A421CD3039B1B68029A17
:10802400D31A0293039B1B68019A13440193039B85
:108034000093039BDB690393009B1B7C002B05D0FF
:10804400009B00221A740098FFF7BEFF039B002BCD
:10805400DED100E000BF124B1A78124B1B789A4213
:108064000CD1104B1B780133DAB20E4B1A700D4B46
:108074001B78022B02D10B4B00221A70094B1B7880
:108084001946094A019B42F82130FFF797FF00BFC8
:1080940005B05DF804FB00BFAC320020B032002014
:1080A400BC320020BD320020B432002082B00190E6
:1080B400184B1A78184B1B789A4223D0154B1B780F
:1080C4000133DAB2134B1A70124B1B78022B02D114
:1080D400104B00221A700F4B1B781A460F4B53F8A3
:1080E4002220019B1A60019B1A680D4B1B681344E4
:1080F4000B4A13600A4B1B6823F07F43084A136042
:10810400012303E0019B00221A600023184602B0F9
:10811400704700BFBC320020BD320020B4320020C2
:10812400B032002088B0039002910192002307939B
:1081340038E0204B1B680693069B1B68039A9A42FF
:1081440006D2069B1A68039BD21A069B1A602DE07E
:10815400069B1B68039AD31A0393069B1B68079A12
:1081640013440793069B00221A60124B1B68059365
:10817400069BDB690F4A1360069BDB68002B11D05A
:10818400029A079B134423F07F42069B5A60069B86
:10819400DA68069B9A60019B1A68069BDA61019B68
:1081A400059A1A60034B1B68002BC2D100BF08B0AC
:1081B400704700BFAC32002000B589B001900023A5
:1081C4008DF81F30664B1B680593AAE0019B002BBA
:1081D40005D0019B0693069BDB69019361E0614B2B
:1081E4001B781A4613465B001344DB005D4A1344B4
:1081F400043304935B4B1B780133DAB2594B1A7086
:10820400584B1A78574B9B789A4202D1554B00220F
:108214001A70049B5B680693049B1B78022B04D0A2
:10822400032B1BD0012B1FD01DE0049B5B68184659
:10823400FFF75EFE0346002B02D001238DF81F30AA
:10824400069B00221A746CE0454B1B680393039B46
:1082540000221A74039BDB69414A1360404B1B687C
:10826400002BF1D15DE05CE000BF069B1B7C002B82
:1082740000D056E0049B9A68069B5A60049BDA6817
:10828400069B9A60049B1A69069BDA60049B5A69F0
:10829400069B9A61344B1B78002B02D0069B00226C
:1082A4005A60069B5A68314B1B68D31A23F07F43EC
:1082B4002F4A93420ED8069B5A682C4B1B681946CA
:1082C4001046FFF7A7FD0246069B9B681A44069BCF
:1082D4001A6017E0254B1A68069B5B68194610461E
:1082E400FFF798FD0290069B9B68029A9A4206D279
:1082F400069B9A68029BD21A069B1A6002E0069BB0
:1083040000221A60069B00225A60069B00229A6093
:10831400069B01221A74069B0022DA610698FFF775
:1083240091FD019B002B7FF451AF0E4B1A780D4B3E
:108334005B789A427FF44AAF9DF81F30002B04D13A
:10834400074B1B68059A9A4201D0012300E00023E1
:1083540003F00103DBB2184609B05DF804FB00BF6B
:10836400AC320020A0310020BF320020B032002007
:10837400FEFF7F0010B588B00190274B1B68002BCF
:1083840044D0254B1B681B680793FFF73BFD069001
:10839400224B1B68059305990698FFF73BFD03469E
:1083A400033304931E4B1B7883F00103DBB2002BD1
:1083B40001D0FFF7DFFC049A079B934238BF1346B2
:1083C400059A13440593059B23F07F430593059871
:1083D400FFF72CFDFFF716FD039006990398FFF7AE
:1083E40019FD0346DC1C06990598FFF713FD0346A7
:1083F4009C420DD9FFF706FD03461846FFF716FD0C
:108404002F20FFF78DFCFFF7D3FD01E0FFF7D2FC2F
:1084140000BF08B010BD00BFAC320020B032002055
:10842400BE32002000B587B00023019300238DF8ED
:108434001730194B1B680493184B1B6803936B4646
:108444001846FFF733FE03468DF80B309DF80B30CA
:10845400002B08D0009B01AA04991846FFF762FE7E
:1084640001238DF81730019B1846FFF7A5FE03463C
:10847400002B02D001238DF817309DF81730002B04
:1084840002D00398FFF776FF054B00221A7000BF55
:1084940007B05DF804FB00BFB0320020AC3200200E
:1084A400BF32002082B003468DF80730034A9DF89E
:1084B4000730537000BF02B0704700BFA0310020E6
:1084C40084B00190144B5B7801338DF80F30124B5C
:1084D4009B789DF80F209A4202D100238DF80F302B
:1084E4000D4B1B789DF80F209A4201D100230FE019
:1084F400019B9DF80F201A70074B5B781A461346B0
:108504005B001344DB00044A134404330293029BCC
:10851400184604B0704700BFA031002000B589B0F0
:1085240003900291019200930023079300238DF896
:1085340016300DF11603184600F0D0FB0DF11703A9
:108544001846FFF7BDFF0690069B002B02D10423BB
:10855400079318E0069B01221A70069B039A5A603F
:10856400FFF750FC0246069B9A60069B029ADA606B
:10857400069B019A1A61069B009A5A619DF817306E
:108584001846FFF78FFF9DF81630184600F0BCFB25
:10859400079B002B01D1FFF711FD079B184609B07B
:1085A4005DF804FB00B587B001900B468DF80330ED
:1085B4000023059300238DF80E300DF10E031846A9
:1085C40000F08CFB0DF10F031846FFF779FF0490C0
:1085D400049B002B02D1042305930BE0049B9DF81C
:1085E40003201A70049B019A5A609DF80F301846B4
:1085F400FFF758FF9DF80E30184600F085FB059BE9
:10860400002B01D1FFF7DAFC059B184607B05DF893
:1086140004FB000008B50E4B0022C3F840210C4BAC
:108624000022C3F844210A4B0022C3F84821084B16
:108634000022C3F84C21064B0022C3F80021044B4E
:108644000022C3F80421FFF7CDFC00BF08BD00BF22
:108654000010014008B5FFF7E5FE00BF08BD0000AB
:1086640008B5FFF7A7FB134B00221A70114B002229
:108674005A70104B0B229A700F4B00221A600F4B4A
:1086840000221A700E4B00221A701420FFF708FB08
:1086940007211420FFF71CFB1420FFF7BBFA00206E
:1086A400FFF756FBFFF7AEFB0246064B1A600023AA
:1086B400184608BDA0310020AC320020BC32002096
:1086C400BD320020B032002086B003900B460192E8
:1086D4008DF80B30134B9B78002B01D108231EE03F
:1086E400019B002B01D1072319E0039B002B01D12F
:1086F400072314E0039B1B681B7C002B01D0082379
:108704000DE0039B1B680593059B00221A74059BCF
:108714009DF80B205A74059B019A5A610023184650
:1087240006B07047A031002000B587B003900291D5
:108734000192039B0593144B9B78002B01D10823D2
:108744001EE0039B002B01D1082319E0029B042B9C
:1087540001D8072314E0059B5B69002B01D1082392
:108764000EE0059B5B7C012B01D1029B00E0002302
:108774000493019B049A02990598FFF7CFFE0346E0
:10878400184607B05DF804FBA031002000B585B0A1
:108794000190019B03930D4B9B78002B01D108237F
:1087A40010E0019B002B03D0039B5B69002B01D1DC
:1087B400082307E0039B00221A7402210398FFF7A1
:1087C400F1FE0346184605B05DF804FBA031002015
:1087D40000B587B00390029113468DF8073000234B
:1087E4000593039B1B781A46114B9B5C002B09D005
:1087F400039B04339DF807200299184605F0ECF812
:1088040005900FE0039B1B781A46094B9B5C002BD9
:1088140008D1039B0C339DF807200299184604F0F5
:1088240093FA0590059B184607B05DF804FB00BF5A
:108834005033002000B585B0019000238DF80F302F
:10884400019B1B781A46114B9B5C002B08D0019BA3
:108854000433184605F06AF903468DF80F300EE02C
:10886400019B1B781A46094B9B5C002B07D1019B8B
:108874000C33184604F0F0FA03468DF80F309DF8D7
:108884000F30184605B05DF804FB00BF50330020DC
:1088940000B587B00390029113468DF8073000238A
:1088A4000593039B1B781A46114B9B5C002B09D044
:1088B400039B04339DF807200299184605F04EF9EE
:1088C40005900FE0039B1B781A46094B9B5C002B19
:1088D40008D1039B0C339DF807200299184604F035
:1088E40013FB0590059B184607B05DF804FB00BF19
:1088F4005033002084B00190019B9B680393019B3B
:10890400DA68039BD31A184604B0704700B587B0E1
:1089140001900091019B1B78012B04D0022B38D0CD
:10892400002B47D05CE0019B5B681B7819462E48FE
:10893400FFF73FF90590059B002B0AD001238DF822
:108944000C30059B0493294B1B6803AA10469847D7
:108954000DE02548FFF7CEFF0346002B07D0002388
:108964008DF80C30214B1B6803AA104698471E480B
:10897400FFF7C0FF02461C4B9B889A4205D8012290
:108984001B491C48FFF784FF2AE01B4B01221A7085
:1089940026E002238DF80C30019BDB68049301224E
:1089A40013491448FFF774FF104B1B6803AA1046C1
:1089B400984715E011491248FFF716F90346002BB2
:1089C40005D101220D490B48FFF702FF07E00323FD
:1089D4008DF80C30054B1B6803AA1046984700BF5E
:1089E40000BF07B05DF804FBCC320020C032002089
:1089F400C8320020282B0020C9320020C4320020B5
:108A0400DC32002030B591B00390029101928DF8D0
:108A140003303C4A019B1360029B002B01D10723C6
:108A24006DE0029B1968029B5B689BB21A4636484C
:108A3400FFF793F80F900F9B0E930E9B002B01D022
:108A44000E9B5CE0029B9968029BDB689BB21A4612
:108A54002E48FFF782F80F900F9B0D930D9B002B70
:108A640001D00D9B4BE02A4B04AC1D460FCD0FC427
:108A740095E80F0084E80F00039B5B690A93039B4E
:108A84001B7C002B14BF01230023DBB28DF82430A0
:108A94009DF803308DF82C30039B5B7C002B01D0B8
:108AA4000E2300E000238DF82530039BDB6806933A
:108AB400039B9B680793039B1B680593039B5B685D
:108AC400049304AB134A1946134802F00DFD0F90AA
:108AD4000F9B0C930C9B002B01D00C9B0FE00F4BB6
:108AE40000221A70039B1B68B3F1FF3F06D00122DA
:108AF4000B490948FFF7CCFE034600E00023184663
:108B040011B030BDC0320020CC320020DC32002055
:108B1400788F030011890200282B0020C93200201D
:108B2400C832002000B587B00190019B002B03D10F
:108B34001449C22008F052F9134B1B788DF81730F2
:108B440001991248FFF750F804909DF81730002B54
:108B540012D00D4B00221A7001220D490D48FFF767
:108B640097FE0390039B0293029B002B04D0054ABB
:108B7400CE210298FEF7FAFE049B184607B05DF872
:108B840004FB00BF988F0300C9320020CC320020C0
:108B9400C8320020282B002000B585B003468DF88C
:108BA40007309DF8073019461048FFF702F8039084
:108BB400039B002B15D10E48FFF73CFE034683F0C0
:108BC4000103DBB2002B0CD00A490848FFF70CF86C
:108BD4000346002B05D1012206490548FFF7F8FD9D
:108BE4000390039B184605B05DF804FBDC320020BB
:108BF400282B0020C432002082B0EFF310830093AE
:108C0400009B019372B6019B184602B0704762B68E
:108C140000BF704700B585B00190FFF7EDFF0390EA
:108C2400164B9B68002B1BD1144B01229A60144BEA
:108C3400D3F88020134B1340104A1360104B114A91
:108C4400C3F880200E4BD3F884300C4A53600C4B8D
:108C54004FF0FF32C3F88420019B00221A7002E017
:108C6400019B01221A70039B002B01D1FFF7CFFF58
:108C74000023184605B05DF804FB00BFEC32002069
:108C840000E100E0FC06FFBD00B585B003468DF8A9
:108C94000730104B9B68002B16D09DF80730002B33
:108CA40012D1FFF7A9FF03900B4A0A4B1B6813600C
:108CB400094A084B5B685360064B00229A60039B89
:108CC400002B01D1FFF7A3FF0023184605B05DF880
:108CD40004FB00BFEC32002000E100E000B583B0EB
:108CE400019000F02BF80346012B03D005494320E3
:108CF40008F074F80198FFF78DFF00BF03B05DF82A
:108D040004FB00BF0490030000B583B003468DF854
:108D1400073000F013F80346012B03D00649512015
:108D240008F05CF89DF807301846FFF7ADFF00BF68
:108D340003B05DF804FB00BF0490030084B0EFF3BC
:108D440005830193019BC3F308030393039B002B47
:108D54000DD1EFF314830093009B0293029B03F065
:108D64000103002B0CBF01230023DBB200E001232D
:108D7400184604B0704786B001900091019B53E8F7
:108D8400021F1FFAA1F2D888824202BFBFF32F8FBD
:108D940000230DE0D88902449889824228BF121A20
:108DA400C1EA024243E802200028E8D14FF001035F
:108DB4008DF80F30059002910492029A009B1A607C
:108DC4009DF80F30DBB2184606B0704784B00190AE
:108DD400019951E8023FC3EA234341E80232002AE1
:108DE400F7D10392029300BF04B0704700B585B079
:108DF40001900091009B19460198FFF7BCFF0346C0
:108E0400002B07D0019B1B68009A528813440393DC
:108E1400039B00E00023184605B05DF804FB00B591
:108E240083B001900091009B1A88009B5B889A4252
:108E340004D10198FFF7CAFF012300E0002318467C
:108E440003B05DF804FB00B585B001900091009B70
:108E54005B099B00019AD018009B03F01F030122B9
:108E640002FA03F3194600F04CF8039000BF05B072
:108E74005DF804FB00B585B001900091009B5B098F
:108E84009B00019AD018009B03F01F03012202FAF1
:108E940003F3DB43194600F064F8039000BF05B008
:108EA4005DF804FB82B001900091009B5B099B007C
:108EB400019A13441A68009B03F01F0322FA03F378
:108EC40003F00103002B14BF01230023DBB2184677
:108ED40002B0704710B487B001900091019B009AD2
:108EE40053E8004F104643E8000191F0000FF7D11A
:108EF400059404900391059B184607B05DF8044B54
:108F0400704710B487B001900091019B009A53E818
:108F1400004F44EA020043E8000191F0000FF6D14B
:108F2400059404900391049B184607B05DF8044B24
:108F3400704710B487B001900091019B009A53E8E8
:108F4400004F04EA020043E8000191F0000FF6D15B
:108F5400059404900391059B184607B05DF8044BF3
:108F6400704710B487B001900091019B009A53E8B8
:108F7400004F04EA020043E8000191F0000FF6D12B
:108F8400059404900391049B184607B05DF8044BC4
:108F9400704710B487B001900091019B009A53E888
:108FA400004F04EB020043E8000191F0000FF6D1FA
:108FB400059404900391049B184607B05DF8044B94
:108FC400704710B487B001900091019B009A53E858
:108FD400004FA4EB020043E8000191F0000FF6D12A
:108FE400059404900391049B184607B05DF8044B64
:108FF400704700B583B0019001210198FFF781FF0C
:109004000346184603B05DF804FB00B583B0019035
:1090140000210198FFF78DFF0346184603B05DF861
:1090240004FB000000B583B001900B468DF80330BB
:10903400019B002B03D10849E82007F0CFFE019BD8
:10904400DA689DF803300199898A01FB03F313441C
:10905400184603B05DF804FB7490030000B583B0B8
:1090640001900091019B002B03D10849F52007F0E2
:10907400B5FE009B019AD2689B1A019A928AB3FBAF
:10908400F2F3DBB2184603B05DF804FB74900300FE
:1090940000B585B00190019B002B01D10E234DE05A
:1090A400019B1B68002B03D12649FF2007F096FE85
:1090B400019B5B68002B04D122494FF4807007F0B8
:1090C4008DFE019B9B68002B04D11E4940F20110C8
:1090D40007F084FE019BDB68002B04D119494FF48F
:1090E400817007F07BFE019B9B8A002B04D11549FC
:1090F40040F2031007F072FE019B9B681A46019B25
:109104005B68D31A8DF80F30019B1B68019A526873
:109114001A6007E0019B1A681368591C11609DF8D6
:109124000F201A709DF80F305A1E8DF80F20002B57
:10913400F0D1019B1B6800221A710023184605B068
:109144005DF804FB7490030000B585B00190019BA9
:10915400002B04D120494FF4927007F03FFE002306
:10916400039300238DF80A300DF10A031846FFF724
:10917400B5FD019B1B681A68019B5B689A4220D964
:10918400019B1B681A68013A1A601B681B78194610
:109194000198FFF747FF0390019B9B681A46019BC8
:1091A4001B681B68D31A8DF80B30019B1B681B7955
:1091B4009DF80B209A4204D9019B1B689DF80B2053
:1091C4001A719DF80A301846FFF79EFD039B184656
:1091D40005B05DF804FB00BF7490030010B584B0C3
:1091E40001900091019B002B04D1154940F24710D6
:1091F40007F0F4FD009B002B04D111494FF4A47037
:1092040007F0ECFD009B039300238DF80B300DF168
:109214000B031846FFF762FD019B1B681C68621C68
:109224001A6003990198FFF719FF034623709DF80C
:109234000B301846FFF768FD00BF04B010BD00BF37
:109244007490030000B583B00190019B002B03D1FF
:109254000C49312007F0C2FD019B9B68002B0CD008
:10926400019B5B69019A1069019A1168019A9268DD
:109274009847019B00229A6000E000BF03B05DF8AC
:1092840004FB00BFDC9003000EB400B584B0019071
:10929400019B002B03D11849422007F09FFD019B3D
:1092A4005B69002B03D11449432007F097FD019B10
:1092B4001B68002B03D11049442007F08FFD019B4C
:1092C4005B68002B03D10C49452007F087FD059B03
:1092D400002B0AD00023039306AB039303AB1A4677
:1092E4000599019800F0B0F900E000BF04B05DF802
:1092F40004EB03B0704700BFDC90030000B583B0FB
:1093040001900B468DF80330019B1A68019B9B6802
:10931400581C0199886013449DF803201A70019B1E
:109324009A68019B5B689A4202D30198FFF78AFF0F
:1093340000BF03B05DF804FB00B587B00390029151
:109344000192009300230593009B03F00103002B7B
:1093540024D00BE0029B01330293059B0133059358
:109364009DF8133019460398FFF7C8FF029B1B783A
:109374008DF813309DF81330002BEBD106E0019BE0
:10938400013B019320210398FFF7B8FF019A059B45
:109394009A422ED9019B002BF1D12AE0029B002B8B
:1093A4000BD002980EF0CFFF059006E0019B013B25
:1093B400019320210398FFF7A1FF019A059B9A428C
:1093C4000FD9019B002BF1D10BE0029B01330293D7
:1093D400059B013305939DF8133019460398FFF755
:1093E4008DFF029B1B788DF813309DF81330002BF2
:1093F400EBD100BF07B05DF804FB000000B589B0F5
:109404000390029101920093029B07930123069318
:1094140007E0079A019BB2FBF3F30793069B013322
:109424000693079A019B9A42F3D2009A069B9A42AA
:1094340001D9009B06930B9B03F00103002B22D15F
:109444000A9B002B1FD00B9B03F00203002B06D0BA
:10945400009B002B03D130238DF8173002E020232A
:109464008DF8173008E00A9B013B0A939DF81730EA
:1094740019460398FFF742FF0A9B002B03D0069A74
:109484000A9B9A42EFD301230793009B012B03D934
:10949400009B013B009309E0029A079BB2FBF3F3A4
:1094A4000493049A019B9A4200D205E0079B019A17
:1094B40002FB03F30793E8E7029A079BB2FBF3F37B
:1094C4000493049B079A02FB03F3029AD31A0293B0
:1094D400154A049B13441B7819460398FFF70EFFA3
:1094E400079A019BB2FBF3F30793079B002BE3D18D
:1094F4000B9B03F00103002B11D00A9B002B0ED011
:1095040006E00A9B013B0A9320210398FFF7F6FE2D
:109514000A9B002B03D0069A0A9B9A42F1D300BF00
:1095240009B05DF804FB00BFA491030000B589B045
:109534000590049103920293049B002BB8BF5B42F5
:1095440006930123079307E0039B069A92FBF3F328
:109554000693079B01330793039B069A9A42F3DA17
:10956400029A079B9A4201D9029B07930A9B002BFC
:109574000AD0049B002B04DB0B9B03F00403002B99
:1095840002D00A9B013B0A930B9B03F00203002BBE
:1095940002D0029B002B16D00B9B03F00103002B7F
:1095A40011D10A9B002B0ED006E00A9B013B0A93C3
:1095B40020210598FFF7A2FE0A9B002B03D0079AEF
:1095C4000A9B9A42F1D3049B002B07DA049B5B426B
:1095D40004932D210598FFF791FE08E00B9B03F0FF
:1095E4000403002B03D02B210598FFF787FE0B9B68
:1095F40003F00203002B19D00B9B03F00103002B93
:1096040014D1029B002B11D10A9B002B0ED006E033
:109614000A9B013B0A9330210598FFF76FFE0A9BD2
:10962400002B03D0079A0A9B9A42F1D304990B9B0F
:1096340001930A9B0093029B039A0598FFF7DEFEB1
:1096440000BF09B05DF804FB00B58FB0059004912C
:109654000392059B002B04D1C8494FF49F7007F077
:10966400BDFB059B5B69002B04D1C4494FF4A0707A
:1096740007F0B4FB059B1B68002B04D1BF4940F2E3
:10968400411007F0ABFB059B5B68002B04D1BB4981
:109694004FF4A17007F0A2FB049B002B00F0ED81B6
:1096A400049B1B788DF83730049B013304939DF899
:1096B4003730002B00F0D8819DF83730252B40F04F
:1096C400C78100230A9301230C93049B1B788DF814
:1096D40037309DF837302D2B04D0302B0AD02B2B6C
:1096E40010D017E00A9B43F001030A93049B013353
:1096F400049312E00A9B43F002030A93049B013390
:1097040004930AE00A9B43F004030A93049B013385
:10971400049302E000230C9300BF0C9B002BD4D1D4
:10972400002309939DF837302A2B0CD1039B1B6827
:10973400191D039A11601B68099A13440993049B29
:10974400013304931AE0049B1B788DF837309DF89D
:1097540037302F2B12D99DF83730392B0ED8049B74
:1097640001330493099A13469B0013445B001A4681
:109774009DF837301344303B0993D3E700230B9310
:10978400049B1B788DF837309DF837302E2B1DD174
:10979400049B01330493049B1B788DF837309DF8A8
:1097A40037302F2B12D99DF83730392B0ED8049B24
:1097B400013304930B9A13469B0013445B001A462F
:1097C4009DF837301344303B0B93E4E7049B1B783C
:1097D4008DF837309DF837306C2B03D09DF8373037
:1097E400682B07D1049B01330493049B1B788DF8E9
:1097F4003730EFE79DF83730253B532B00F22381B8
:1098040001A252F823F000BF419A02004B9A0200D1
:109814004B9A02004B9A02004B9A02004B9A0200A8
:109824004B9A02004B9A02004B9A02004B9A020098
:109834004B9A02004B9A02004B9A02004B9A020088
:109844004B9A02004B9A02004B9A02004B9A020078
:109854004B9A02004B9A02004B9A02004B9A020068
:109864004B9A02004B9A02004B9A02004B9A020058
:109874004B9A02004B9A02004B9A02004B9A020048
:109884004B9A02004B9A02004B9A02004B9A020038
:109894004B9A02004B9A02004B9A02004B9A020028
:1098A4004B9A02004B9A02004B9A02004B9A020018
:1098B4004B9A02004B9A02004B9A02004B9A020008
:1098C4004B9A02004B9A02004B9A02004B9A0200F8
:1098D4004B9A0200CD9902004B9A02004B9A020067
:1098E4004B9A02004B9A02004B9A02004B9A0200D8
:1098F4004B9A02004B9A02004B9A02004B9A0200C8
:109904005D990200859902004B9A02004B9A02006D
:109914004B9A02004B9A0200859902004B9A02006E
:109924004B9A02004B9A02004B9A02004B9A020097
:109934004B9A02000D9A02004B9A02004B9A0200C5
:10994400F19902004B9A0200A99902004B9A020075
:109954004B9A0200CD990200039B1B68191D039AC0
:1099640011601B680C930C9B8DF81F309DF81F3001
:1099740019460598FFF7C2FC66E000BF3C9103005E
:10998400039B1B68191D039A11601B680C930A9BA7
:109994000193099B00930B9B0A220C990598FFF7EE
:1099A400C5FD51E0039B1B68191D039A11601B68D8
:1099B4000C930C990A9B0193099B00930B9B0A221D
:1099C4000598FFF71BFD3FE0039B1B68191D039AD5
:1099D40011601B680C930C990A9B0193099B0093DB
:1099E4000B9B10220598FFF709FD2DE0039B1B68D4
:1099F400191D039A11601B6808930A9B099A089918
:109A04000598FFF799FC1FE0039B1B68191D039A37
:109A140011601B680C9330210598FFF76FFC7821C7
:109A24000598FFF76BFC0C9900230193082300931E
:109A3400082310220598FFF7E1FC05E0252105988D
:109A4400FFF75CFC00E000BF049B0133049305E0D6
:109A54009DF8373019460598FFF750FC049B1B7896
:109A6400002B7FF41DAE00E000BF059B1B7B002B89
:109A740004D00598FFF7E6FB00E000BF0FB05DF8E7
:109A840004FB00BF00B585B00190019B002B03D0FF
:109A9400019B1B68002B28D10023039319E0039A30
:109AA40013469B0013449B001A46154B1344019321
:109AB400019B1B68002B09D0019B1B68DB69019883
:109AC40098470346002B01D0012314E0039B013384
:109AD40003930C4A0A4BD31A0B4AA2FB03231B0918
:109AE400039A9A42DBD3002305E0019B1B68DB69E0
:109AF400019898470346184605B05DF804FB00BF7B
:109B0400E42A0020E42A0020CDCCCCCC29DF704705
:109B140000BF184628DF704700BF184600B589B05B
:109B240001900091019B1B689B68002B35D002AB10
:109B340000221A605A609A60DA601A615A61009BC6
:109B44000393019B9B680793019B1B79002B02D015
:109B5400012B0DD01AE001238DF80830019B1B69FD
:109B64000493019BDB680593019B5B6906930DE0FD
:109B740002238DF80830019BDB684FF4805202FB0E
:109B840003F30493019B5B69069300BF019B1B686D
:109B94009B6802AA1046984700E000BF09B05DF830
:109BA40004FB00B587B00190019B5A69019B9B6936
:109BB400D31AB3F5805F28BF4FF480530593042272
:109BC400059BB3FBF2F3012B38BF01230593019BE3
:109BD4001A69019B9B6913440493019BDB681A4631
:109BE400019B9B6913440393059A03990498FFF717
:109BF4008DFF0346184607B05DF804FB00B583B03B
:109C04000190019BDA68019B1B6913441846FFF716
:109C140081FF0346184603B05DF804FB08B5034B07
:109C240003491846FFF7FBF800BF08BD3C2B002092
:109C34001033002008B5084B08491846FFF7D6F83A
:109C44000246074B1A60064B1B68002B14BF012306
:109C54000023DBB2184608BD3C2B00201033002043
:109C64000C33002000B583B02A4B1B7A002B0BD198
:109C7400FFF7E0FF034683F00103DBB2002B03D0C0
:109C8400244B00225A6042E0224B02221A72224BD9
:109C94001B681B79002B02D0012B07D00DE01E4B53
:109CA4001B681846FFF77DFF019009E01A4B1B68FB
:109CB4001846FFF7A3FF019002E00323019300BFBE
:109CC400019B002B02D0112B0CD00FE0114B1B7CFD
:109CD40083F00103DBB2002B18D00021022000F036
:109CE4006FF813E00B4B01221A7210E00A4B1B6849
:109CF40003211846FFF712FF064B00221A72054B88
:109D040000225A60FFF78AFF00BF00E000BF03B0E3
:109D14005DF804FBF83200200C33002084B001907D
:109D24001B4B0022DA60019B1B79002B02D0012B14
:109D340019D028E0019B5A69019B9B69D31AB3F59A
:109D4400805F28BF4FF480530393019B9A69039B60
:109D54001A44019B9A61019B9A69019B5B699A422F
:109D64000ED1012310E0019B1B695A1C019B1A614F
:109D7400019B1A69019B5B699A4203D1012303E0A9
:109D840000BF00E000BF0023184604B0704700BFC6
:109D9400F832002082B00190084BDB680133074A97
:109DA400D360064BDB68082B04D9044B0022DA602D
:109DB400012300E00023184602B07047F832002067
:109DC40000B585B001900091019B022B02D0019B4C
:109DD400032B49D1274B1B7A012B35D0022B02D000
:109DE400002B43D033E000238DF80F30019B022B6E
:109DF40002D0032B09D011E01F4B1B681846FFF754
:109E04008DFF03468DF80F3008E01B4B1B68184686
:109E1400FFF7C0FF03468DF80F3000BF9DF80F30E9
:109E2400002B13D0134B00221A72134B1A68019B98
:109E3400022B01D1002300E00D2319461046FFF741
:109E44006DFEFFF7EBFE01E000BF00E000BF094B31
:109E54005B7C83F00103DBB2002B02D0FFF702FF2F
:109E640005E00BF0D1FB02E000BF00E000BF05B04D
:109E74005DF804FBF83200200C33002082B0034666
:109E840000918DF80730064B01225A74044B1B7A5B
:109E9400002B0CBF01230023DBB2184602B070472D
:109EA400F832002000B583B0034600918DF80730E6
:109EB4009DF80730012B03D09DF80730032B0DD1FB
:109EC400084B00225A749DF80730012B0CBF012364
:109ED4000023DAB2034B1A74FFF7C4FE00BF03B0C9
:109EE4005DF804FBF832002000B583B001900198BE
:109EF400FFF7CEF80346184603B05DF804FB00B53F
:109F04008BB001900091019B9B8A043B0793009ABC
:109F1400079B1344DA1C079BB2FBF3F38DF81B3049
:109F24000198FFF711F90590059B002B01D100233F
:109F340038E0059B00221A71059B01225A71079B88
:109F44009AB2059BDA80059B09939DF81B30013B6F
:109F54000493099B019A1A60002308931DE0019859
:109F6400FFF7F2F80390039B002B0ED0059B5B795F
:109F74000133DAB2059B5A71099B039A1A60039B59
:109F8400019A1A60039B099304E0059800F00EF807
:109F9400002307E0089B01330893089A049B9A4224
:109FA400DDD3059B18460BB05DF804FB00B58BB000
:109FB4000190019B0793079B5B798DF81B30019BF4
:109FC40008939DF81B30013B05930023099305E09A
:109FD400089B1B680893099B01330993099A059B05
:109FE4009A42F5D3089B1B680493019B08930023B2
:109FF40009930BE0089B1B68039308990498FFF7E7
:10A00400EDF8039B0893099B013309939DF81B30DA
:10A01400099A9A42EED300BF0BB05DF804FB00B579
:10A0240085B00190019B0393039B043301211846DF
:10A03400FEF7AFFF00BF05B05DF804FB00B587B0C5
:10A044000190019B0593059B043301211846FEF7FB
:10A05400B8FF0346039303AB0493049B1B78002BC4
:10A0640002D10198FFF7A2FF00BF07B05DF804FB1F
:10A0740000B58DB00390029101920093039B069367
:10A08400069BDB880593039B0B93009B1A1D059B82
:10A09400B2FBF3F30A93009B0433059AB3FBF2F289
:10A0A400059901FB02F29B1A0993009A019B1A4439
:10A0B400059B1344DA1C059BB2FBF3F38DF81330B4
:10A0C400069B5B799DF813209A420AD92749BA2046
:10A0D40006F084FE05E00B9B1B680B930A9B013B77
:10A0E4000A930A9B002BF6D100230893059A099B37
:10A0F400D31A0793079A019B934228BF13460793E9
:10A104002DE09DF83830002B0BD0029A089BD01814
:10A114000B9A099B13440433079A19460EF06EF800
:10A124000AE00B9A099B1344181D029A089B1344D6
:10A13400079A19460EF062F8002309930B9B1B68DB
:10A144000B93019A079BD31A0193089A079B134414
:10A154000893059A019B934228BF13460793019BDA
:10A16400002BCED100BF0DB05DF804FB7893030043
:10A1740000B587B0059004910392029300230093E5
:10A18400029B039A04990598FFF772FF00BF07B07A
:10A194005DF804FB00B587B0059004910392029327
:10A1A40001230093029B039A04990598FFF760FF2B
:10A1B40000BF07B05DF804FB82B003468DF807309A
:10A1C4009DF8073003F01F0206499DF907305B092B
:10A1D400012000FA02F2603341F8232000BF02B0EC
:10A1E400704700BF00E100E000B583B00190019B1F
:10A1F400002B03D10649722006F0F0FD019B0022DA
:10A204001A60BFF35F8F00BF03B05DF804FB00BFAB
:10A214004494030041DF704700BF184600B585B081
:10A2240000238DF803300DF103031846FEF756FDA5
:10A23400F1EE103A0193019B0393039B23F09F03D8
:10A244000293029BE1EE103ABFF35F8F2620FFF7E3
:10A25400B3FF9DF803301846FEF756FD039B03F049
:10A264000703002B03D00449762006F0B7FD00BF96
:10A2740005B05DF804FB00BF8894030008B5064BE5
:10A2840000221A700548FFF7AFFF0549054800F0A2
:10A294002DF80023184608BD18330020143300207D
:10A2A400F49403001C33002000B583B0FFF7B6FF1D
:10A2B4000BF0C6F90346002B0ED0FFF7ABFF01905D
:10A2C400019B002B0BD0019B022B08D0064940F2C6
:10A2D400591006F083FD02E020BF40BF20BF00BF3D
:10A2E40003B05DF804FB00BF8894030000B583B09D
:10A2F40001900091019B002B03D11049502006F0DE
:10A304006DFD009B002B03D10C49512006F066FD26
:10A31400019B009A1A60019B1B681A68019B5A6092
:10A32400019B5A68019B1B685B689A4202D1019B9E
:10A3340000225A6000BF03B05DF804FB00950300DF
:10A3440000B583B00190019B002B03D11449632015
:10A3540006F044FD019B1B68002B03D110496420C7
:10A3640006F03CFD019B5B68002B14D0019B5B68ED
:10A374001A46019B1B689B6813441A46019B5A604A
:10A38400019B5A68019B1B685B689A4204D1019B3C
:10A3940000225A6000E000BF03B05DF804FB00BF78
:10A3A4000095030000B585B00190019800F00EF807
:10A3B4000390039B002B01D0039B00E0024B184643
:10A3C40005B05DF804FB00BF8495030086B00190DE
:10A3D400164B0593164B04931FE0049A059BD31A5E
:10A3E400DB10DA0F13445B10DB00059A134403936C
:10A3F400039B1B680293029A019B9A4202D9039B16
:10A4040004930AE0029A019B9A4203D2039B083305
:10A41400059302E0039B5B6804E0059A049B9A425F
:10A42400DBD30023184606B0704700BF84990300AD
:10A43400AC9A030000B585B00190019B002B0AD0B3
:10A44400074B43F001030393019B9B010293039B7E
:10A454000298984700E000BF05B05DF804FB00BF18
:10A46400E09A030000B583B00190019B1B681F2B89
:10A4740004D9054940F2C71006F0B0FC4FF0A043E0
:10A48400184603B05DF804FBAC9A030000B585B030
:10A49400019001AB1846FFF7E5FF0390019B0122F1
:10A4A40002FA03F31946039800F035F800BF05B02B
:10A4B4005DF804FB00B585B0019001AB1846FFF7C9
:10A4C400D1FF0390019B012202FA03F3194603987A
:10A4D40000F02BF800BF05B05DF804FB00B585B0B3
:10A4E400019001AB1846FFF7BDFF0390039800F0FD
:10A4F4000AF80246019B22FA03F303F0010318460B
:10A5040005B05DF804FB82B00190019BD3F81035CF
:10A51400184602B0704782B001900091019B009AE6
:10A52400C3F8082500BF02B0704782B001900091C3
:10A53400019B009AC3F80C2500BF02B0704700B518
:10A5440085B001904FF0A042019B1B6803F5E073B6
:10A5540040F20C6142F823104FF0A042019B5B686B
:10A5640003F5E07340F20C6142F82310019B1B6871
:10A574001846FFF78BFF019B5B681846FFF786FFC1
:10A584004FF0A042019B1B6803F5E07340F20D619C
:10A5940042F823104FF0A042019B5B6803F5E0737F
:10A5A40040F20D6142F823100420FFF743FF00231B
:10A5B40003931EE0019B5B681846FFF78FFF034679
:10A5C400002B03D0039B002B17D124E0019B1B68B5
:10A5D4001846FFF76FFF0420FFF72CFF019B1B6851
:10A5E4001846FFF753FF0420FFF724FF039B0133B2
:10A5F4000393039B082BDDDD00E000BF019B5B6838
:10A604001846FFF757FF0420FFF714FF019B5B6810
:10A614001846FFF73BFF05B05DF804FB00B589B0B1
:10A6240001900091009B0793019B1B788DF80C30DF
:10A63400019B1B798DF81030019B5B798DF81130EB
:10A64400019B9B68DBB28DF81230019BDB68DBB2A7
:10A654008DF81330019B1B690593019B5B6906937D
:10A66400074A079B52F823300649079A51F82210EB
:10A6740003AA1046984700BF09B05DF804FB00BF69
:10A68400243300202C33002000B587B003900291BE
:10A6940001920093039B1B7805931249059B019A31
:10A6A40041F823201049059B009A41F82320029B7E
:10A6B4005B7B002B02D00298FFF741FF0023049339
:10A6C400039B181D019B002B01D0084A00E00022C7
:10A6D400059B029903F03AFE0490049B184607B0C8
:10A6E4005DF804FB243300202C33002021A6020053
:10A6F400BFF34F8F054BDB6803F4E0620349044B5F
:10A704001343CB60BFF34F8F00BFFDE700ED00E0C4
:10A714000400FA05024B034A1A6000BF704700BFE9
:10A72400502B00200090D00308B500F067F90346D1
:10A73400002B06D09F4B1B681B0A9F4A03F01F0384
:10A74400136000F087F90346002B02D09B4B9C4A10
:10A754001A6000F09BF90346002B06D0994B1B6846
:10A764005B0B994A03F00703136000F0BBF903463F
:10A77400002B05D0954BDB68944A23F08073D3609B
:10A7840000F0CCF90346002B0ED04FF0804300229A
:10A79400C3F80C214FF080430022C3F810214FF07E
:10A7A40080430022C3F8382500F0E4F90346002B67
:10A7B40002D0874B03221A6000F0F8F90346002BFD
:10A7C4000BD0844B05221A60834B01221A60834B01
:10A7D40000221A60824B3F221A6000F003FA0346FB
:10A7E400002B76D04FF080537E4AD3F80434C2F85D
:10A7F40020354FF080537B4AD3F80834C2F824350F
:10A804004FF08053774AD3F80C34C2F828354FF010
:10A814008053744AD3F81034C2F82C354FF0805367
:10A82400704AD3F81434C2F830354FF080536D4A6F
:10A83400D3F81834C2F834354FF08053694AD3F84A
:10A844001C34C2F840354FF08053664AD3F82034A4
:10A85400C2F844354FF08053624AD3F82434C2F826
:10A8640048354FF080535F4AD3F82834C2F84C354A
:10A874004FF080535B4AD3F82C34C2F850354FF074
:10A884008053584AD3F83034C2F854354FF08053CB
:10A89400544AD3F83434C2F860354FF08053514AE7
:10A8A400D3F83834C2F864354FF080534D4AD3F8A6
:10A8B4003C34C2F868354FF080534A4AD3F84034E8
:10A8C400C2F86C354FF08053464AD3F84434C2F88A
:10A8D400703500F0A3F90346002B05D0424B1B68EA
:10A8E400424A03F04F03136000F0C4F90346002BFF
:10A8F4000DD04FF08043D3F8003403F00103002B54
:10A9040005D04FF080436FF00102C3F8002400F03B
:10A91400DDF90346002B05D0354B1B68344A43F45C
:10A9240080631360334BD3F88830324A43F47003A6
:10A93400C2F88830BFF34F8FBFF36F8F4FF01023EF
:10A94400D3F80032002B05DB4FF01023D3F8043288
:10A95400002B2BDA284B0122C3F8042500BF264B19
:10A96400D3F80034002BFAD04FF010231522C3F88B
:10A97400002200BF204BD3F80034002BFAD04FF054
:10A9840010231522C3F8042200BF1B4BD3F8003454
:10A99400002BFAD0184B0022C3F8042500BF164B35
:10A9A400D3F80034002BFAD0FFF7A2FEFFF7B2FE73
:10A9B40000BF08BD240300104035014074C00740A7
:10A9C4000DF0ADBA440200103C050040F0ED00E08B
:10A9D400A00500401056004088560040185600401C
:10A9E4001456004000C0004058020010E40E00401D
:10A9F4003C17004000ED00E000E00140124B1B68F2
:10AA0400DBB2062B1DD1114B1B6803F00F03002B87
:10AA140017D10F4B1B6803F0F003302B01D1012336
:10AA240010E00B4B1B6803F0F003402B01D1012312
:10AA340008E0074B1B6803F0F003502B01D10123FE
:10AA440000E0002318467047E00F00F0E40F00F028
:10AA5400E80F00F00A4B1B68DBB2062B0DD1094B43
:10AA64001B6803F00F03002B07D1074B1B6803F08F
:10AA7400F003302B01D1012300E000231846704776
:10AA8400E00F00F0E40F00F0E80F00F0124B1B6839
:10AA9400DBB2062B1DD1114B1B6803F00F03002BF7
:10AAA40017D10F4B1B6803F0F003302B01D10123A6
:10AAB40010E00B4B1B6803F0F003402B01D1012382
:10AAC40008E0074B1B6803F0F003502B01D101236E
:10AAD40000E0002318467047E00F00F0E40F00F098
:10AAE400E80F00F00A4B1B68DBB2062B0DD1094BB3
:10AAF4001B6803F00F03002B07D1074B1B6803F0FF
:10AB0400F003302B01D1012300E0002318467047E5
:10AB1400E00F00F0E40F00F0E80F00F0124B1B68A8
:10AB2400DBB2062B1DD1114B1B6803F00F03002B66
:10AB340017D10F4B1B6803F0F003302B01D1012315
:10AB440010E00B4B1B6803F0F003402B01D10123F1
:10AB540008E0074B1B6803F0F003502B01D10123DD
:10AB640000E0002318467047E00F00F0E40F00F007
:10AB7400E80F00F00A4B1B68DBB2062B0DD1094B22
:10AB84001B6803F00F03002B07D1074B1B6803F06E
:10AB9400F003302B01D1012300E000231846704755
:10ABA400E00F00F0E40F00F0E80F00F00A4B1B6820
:10ABB400DBB2062B0DD1094B1B6803F00F03002BEE
:10ABC40007D1074B1B6803F0F003302B01D101239D
:10ABD40000E0002318467047E00F00F0E40F00F097
:10ABE400E80F00F00A4B1B68DBB2062B0DD1094BB2
:10ABF4001B6803F00F03002B07D1074B1B6803F0FE
:10AC0400F003502B01D1012300E0002318467047C4
:10AC1400E00F00F0E40F00F0E80F00F0124B1B68A7
:10AC2400DBB2062B1DD1114B1B6803F00F03002B65
:10AC340017D10F4B1B6803F0F003302B01D1012314
:10AC440010E00B4B1B6803F0F003402B01D10123F0
:10AC540008E0074B1B6803F0F003502B01D10123DC
:10AC640000E0002318467047E00F00F0E40F00F006
:10AC7400E80F00F0124B1B68DBB2062B1DD1114B01
:10AC84001B6803F00F03002B17D10F4B1B6803F055
:10AC9400F003302B01D1012310E00B4B1B6803F0B0
:10ACA400F003402B01D1012308E0074B1B6803F09C
:10ACB400F003502B01D1012300E000231846704714
:10ACC400E00F00F0E40F00F0E80F00F0064B1B6803
:10ACD400062B05D1054B1B68062B01D1012300E08F
:10ACE40000231846704700BF3001001034010010E3
:10ACF40000B583B00190019B1B681F2B04D9054943
:10AD040040F2C71006F06AF84FF0A043184603B0AB
:10AD14005DF804FBE89A030000B585B0019008468D
:10AD240011461A4603468DF803300B468DF802305F
:10AD340013468DF8013001AB1846FFF7D9FF039095
:10AD44009DF803209DF802305B001A439DF8013002
:10AD54009B001A439DF818301B0242EA03019DF838
:10AD64001C301B04019A1943039B02F5E07243F85B
:10AD7400221000BF05B05DF804FB00B585B0039058
:10AD8400002301930023009300230122012103984F
:10AD9400FFF7C2FF00BF05B05DF804FB00B585B046
:10ADA40003900B468DF80B309DF80B200023019384
:10ADB400002300931346002200210398FFF7ACFF01
:10ADC40000BF05B05DF804FB00B585B0019001AB90
:10ADD4001846FFF78DFF0390019B012202FA03F34B
:10ADE4001946039800F086F800BF05B05DF804FB2F
:10ADF40000B585B0019001AB1846FFF779FF0390C9
:10AE0400019B012202FA03F31946039800F07CF82F
:10AE140000BF05B05DF804FB00B585B0019001AB3F
:10AE24001846FFF765FF0390039BD3F8043502939C
:10AE3400029BDA43019B012101FA03F31A40039BAD
:10AE4400C3F80825019B01229A40029B1A40039BE8
:10AE5400C3F80C2500BF05B05DF804FB00B583B052
:10AE640001900091009B002B03D10198FFF7C0FFD4
:10AE740002E00198FFF7A8FF00BF03B05DF804FBF0
:10AE840000B585B0019001AB1846FFF731FF039080
:10AE9400039800F01FF80246019B22FA03F303F023
:10AEA4000103184605B05DF804FB00B585B00190B8
:10AEB40001AB1846FFF71CFF0390039800F012F84B
:10AEC4000246019B22FA03F303F00103184605B07E
:10AED4005DF804FB82B00190019BD3F8103518464D
:10AEE40002B0704782B00190019BD3F80435184634
:10AEF40002B0704782B001900091019B009AC3F8A0
:10AF0400082500BF02B0704782B001900091019BF8
:10AF1400009AC3F80C2500BF02B0704700B585B095
:10AF24000190019B032B03D911493A2005F056FFE8
:10AF3400104A019B13441B781846FFF7B6FF0346DB
:10AF4400002B14BF012300238DF80F309DF80F3020
:10AF5400002B14BF01230023DBB283F00103DBB217
:10AF640003F00103DBB2184605B05DF804FB00BF33
:10AF7400189B0300749B030000B583B00190019BF0
:10AF8400032B03D90749412005F028FF064A019BFA
:10AF940013441B7800211846FFF760FF00BF03B07D
:10AFA4005DF804FB189B0300749B030000B583B099
:10AFB4000190019B032B03D90749472005F00EFF9D
:10AFC400064A019B13441B7801211846FFF746FFEC
:10AFD40000BF03B05DF804FB189B0300749B0300DF
:10AFE40000B583B00023019305E00198FFF7DEFF6D
:10AFF400019B01330193019B032BF6D900BF03B0DE
:10B004005DF804FB00B583B00023019305E00198CB
:10B01400FFF7B2FF019B01330193019B032BF6D988
:10B0240000BF03B05DF804FB00B583B00190019B41
:10B03400032B03D907495F2005F0D0FE064A019B84
:10B0440013441B781846FFF7E7FE00BF03B05DF812
:10B0540004FB00BF189B0300749B030000B583B07E
:10B064000023019309E0094A019B13441B78184605
:10B07400FFF783FE019B01330193019B032BF2D95C
:10B08400FFF7AEFF00BF03B05DF804FB749B030041
:10B0940000B585B00190019B032B03D91149AC2065
:10B0A40005F09CFE104A019B13441B781846FFF7D9
:10B0B400E7FE0346002B14BF012300238DF80F3055
:10B0C4009DF80F30002B14BF01230023DBB283F063
:10B0D4000103DBB203F00103DBB2184605B05DF8EF
:10B0E40004FB00BF189B0300789B030000B583B0EA
:10B0F400002301930AE0094A019B13441B780321AE
:10B104001846FFF74BFE019B01330193019B032B70
:10B11400F1D900BF03B05DF804FB00BF789B0300C6
:10B1240084B001904FF0FF330293002303930DE0AA
:10B134000A4A039B13441B781A46019B934202D18B
:10B14400039B029305E0039B01330393039B032BAF
:10B15400EED9029B184604B0704700BF789B0300E9
:10B1640000B583B00190019B032B03D90549CB2083
:10B1740005F034FE044A019B13441B78184603B0BF
:10B184005DF804FB189B0300789B030000B583B0B3
:10B194000190019B03F00103002B01D0FFF75EFF38
:10B1A400019B03F00203002B01D0FFF79FFF00BFB8
:10B1B40003B05DF804FB000082B003468DF807304D
:10B1C4009DF8073003F01F0206499DF907305B091B
:10B1D400012000FA02F2203341F8232000BF02B01C
:10B1E400704700BF00E100E008B50AF029FA034601
:10B1F40083F00103DBB2002B03D10549792005F06C
:10B20400EDFD00F03BFB034B00229A7000BF08BD2C
:10B21400849B03003433002000B583B000230193E2
:10B22400144B1B78002B02D0852301931CE0114B97
:10B2340000229A600F4B00225A600E4B00221A61C2
:10B244000C4B0022DA600C4800F0DEFA01900AF0A0
:10B25400F7F9034683F00103DBB2002B01D000F0C1
:10B26400F9FA044B01221A70019B184603B05DF8E9
:10B2740004FB00BF3433002055B3020084B00190B6
:10B28400019B1B680393039B002B03D0039B1A6849
:10B29400019B1A60039B184604B0704700B583B045
:10B2A400164B1B78002B04D115494FF4847005F01C
:10B2B40095FD124BDB68002B04D1114940F20910B3
:10B2C40005F08CFD00238DF807300DF107031846B7
:10B2D400FDF704FD094BDB68013B084AD360074BCB
:10B2E400DB68002B01D1FFF77FFF9DF8073018467C
:10B2F400FDF70AFD00BF03B05DF804FB3433002002
:10B30400849B030000B585B003468DF807309DF893
:10B314000730002B02D10C4B039301E00B4B03933A
:10B324000398FFF7ABFF0290029B002B06D0029B11
:10B334005B689DF8072010469847F1E700BF00BFFF
:10B3440005B05DF804FB00BF3C330020443300200B
:10B3540000B583B003468DF807309DF80730002B05
:10B3640005D10A4B01225A700020FFF7CBFF9DF84C
:10B374000730012B05D1054B01229A700120FFF7FC
:10B38400C1FF00BF03B05DF804FB00BF34330020ED
:10B3940000B583B001900091019B002B05D1054BB2
:10B3A40001225A700020FFF7ADFF00BF03B05DF823
:10B3B40004FB00BF3433002000B585B00346009180
:10B3C4008DF807309DF80730012B08D0032B25D0CA
:10B3D400002B00D030E00020FFF7EEFE2CE000232D
:10B3E4008DF80F300DF10F031846FDF777FC144B61
:10B3F4001B7883F00103DBB2002B01D0FFF70CFFB5
:10B404000F4BDB6801330E4AD3600D4B01229A7057
:10B414009DF80F301846FDF777FC0DE0084B1B78BC
:10B42400002B04D1074940F2432005F0D7FC00F07B
:10B4340011FAFFF733FF00BF00BF05B05DF804FB4E
:10B4440034330020849B030000B589B0019000913F
:10B45400009B0793019B1B788DF80C30019B5B6864
:10B464000493019B1B7A8DF81430019BDB680693CF
:10B47400074A079B52F823300649079A51F82210CD
:10B4840003AA1046984700BF09B05DF804FB00BF4B
:10B49400483300204C33002000B589B0019000915E
:10B4A400009B0793019B1B788DF80C30019B5B6814
:10B4B4000493019B9B68DBB28DF81430019BDB681D
:10B4C4000693074A079B52F823300649079A51F816
:10B4D400221003AA1046984700BF09B05DF804FB88
:10B4E400483300204C33002030B58FB003900291D4
:10B4F4000192039B1B780C9326490C9B019A41F8FB
:10B504002320029B1A6924490C9B41F82320029BA7
:10B514005B7F1946214A0C9B13440A461A70029B0E
:10B5240004AC1D460FCD0FC495E80F0084E80F004E
:10B534000C9B089300230D93039B1B781A46174B0F
:10B544009B5C002B0DD0039B181D019B002B01D08D
:10B55400134A00E0002204AB194602F0D7F90D901B
:10B5640014E0039B1B781A460C4B9B5C002B0DD1FB
:10B57400039B03F10C00019B002B01D0094A00E05E
:10B58400002204AB194601F02DFB0D900D9B1846CB
:10B594000FB030BD483300204C330020503300201E
:10B5A4004DB402009DB4020082B003468DF807300A
:10B5B4009DF8073003F01F0205499DF907305B0928
:10B5C400012000FA02F241F8232000BF02B07047C4
:10B5D40000E100E082B003468DF807309DF80730A3
:10B5E40003F01F0206499DF907305B09012000FAA8
:10B5F40002F2603341F8232000BF02B0704700BF5D
:10B6040000E100E082B0034600918DF807309DF917
:10B614000730002B0CDA009BDAB20C499DF8073096
:10B6240003F00F03043B5201D2B20B441A7609E033
:10B63400009BDAB206499DF907305201D2B20B449D
:10B6440083F8002300BF02B0704700BF00ED00E0A4
:10B6540000E100E000B583B003460A468DF80730E8
:10B6640013468DF806309DF80630012B03D99DF85A
:10B674000630032B0BD99DF80630042B03D99DF813
:10B684000630072B03D908496B2005F0A7FB9DF86A
:10B6940006209DF9073011461846FFF7B3FF00BF97
:10B6A40003B05DF804FB00BFEC9B030000B583B05E
:10B6B40003468DF807309DF907301846FFF78AFFD7
:10B6C4009DF907301846FFF76FFF00BF03B05DF820
:10B6D40004FB000082B003468DF807300F4A9DF941
:10B6E4000730002B00DA1F335B115BB252F82320C2
:10B6F4009DF90730594203F01F0301F01F0158BFA1
:10B704004B425BB222FA03F303F00103002B14BF94
:10B7140001230023DBB2184602B0704700E100E0C9
:10B7240082B001904FF08042019BC2F8083300BF01
:10B7340002B0704782B003468DF807309DF8073099
:10B7440003F1804301221A6000BF02B0704784B045
:10B754000346ADF80630BDF8063003F180430022FD
:10B764001A60BDF8063003F180431B680393039B02
:10B7740000BF04B0704782B00346ADF80630BDF890
:10B78400063003F180431B68002B14BF0123002300
:10B79400DBB2184602B0704782B003468DF807301A
:10B7A4009DF807304FF0804203F00303C2F81835C8
:10B7B40000BF02B070474FF08043D3F818341B0C1D
:10B7C40003F00103002B14BF01230023DBB218464E
:10B7D400704700B583B007238DF807300020FFF7CA
:10B7E40079FF034683F00103DBB2002B08D09DF8F8
:10B7F400073019460020FFF72DFF0020FFF756FF02
:10B8040000BF03B05DF804FB00B585B00190019B57
:10B81400002B03D10D49A22005F0E0FA0023039385
:10B824000B4B1B79002B02D08523039308E0084AB5
:10B83400019B1360064B01221A71054B00225A71B9
:10B84400039B184605B05DF804FB00BF249C03006D
:10B854005433002008B5074B1B79002B03D106494C
:10B86400BB2005F0BBFAFFF7B4FF0120FFF794FFFC
:10B8740000BF08BD54330020249C030008B5094BC5
:10B884001B79002B03D10849F22005F0A7FA0C20FC
:10B89400FFF750FF00BFFFF78EFF0346002BFAD1DE
:10B8A40000BF08BD54330020249C030008B54FF4A6
:10B8B4008070FFF760FF0346002B14D04FF48070B4
:10B8C400FFF745FF0120FFF72BFF114B5B7983F056
:10B8D4000103DBB2002B06D00D4B01225A710C4B35
:10B8E4001B68002098474FF48270FFF744FF03461B
:10B8F400002B0AD04FF48270FFF729FF0220FFF7D4
:10B904000FFF034B1B680120984700BF08BD00BF11
:10B914005433002082B003468DF807309DF8073079
:10B9240003F01F0205499DF907305B09012000FA65
:10B9340002F241F8232000BF02B0704700E100E0AA
:10B9440082B003468DF807309DF8073003F01F02DC
:10B9540006499DF907305B09012000FA02F26033C1
:10B9640041F8232000BF02B0704700BF00E100E0AF
:10B9740082B0034600918DF807309DF90730002B03
:10B984000CDA009BDAB20C499DF8073003F00F0380
:10B99400043B5201D2B20B441A7609E0009BDAB29E
:10B9A40006499DF907305201D2B20B4483F80023B3
:10B9B40000BF02B0704700BF00ED00E000E100E00E
:10B9C40000B583B003460A468DF8073013468DF858
:10B9D40006309DF80630012B03D99DF80630032B61
:10B9E4000BD99DF80630042B03D99DF80630072B9C
:10B9F40003D908496B2005F0F1F99DF806209DF95B
:10BA0400073011461846FFF7B3FF00BF03B05DF8D7
:10BA140004FB00BF8C9C030000B583B003468DF883
:10BA240007309DF907301846FFF78AFF9DF9073064
:10BA34001846FFF76FFF00BF03B05DF804FB00B5C5
:10BA440083B00346ADF80630BDF80630184600F062
:10BA540026F803461B68012B0CBF01230023DBB22D
:10BA6400184603B05DF804FB00B585B00346ADF895
:10BA74000630BDF80630184600F011F803461A46A1
:10BA840000231360BDF80630184600F008F803469A
:10BA94001B680393039B00BF05B05DF804FB82B0F1
:10BAA4000346ADF80630BDF8063003F1804303F5D4
:10BAB400C043184602B0704782B00190034A019B0C
:10BAC400C2F8043300BF02B0704700BF00600040FA
